{
  "fileName": "coin.sol",
  "contractName": "BananaCoin",
  "source": "// SPDX-License-Identifier: GPL-3.0\npragma solidity ^0.7.5;\n\ncontract BananaCoin {\n  string public name;\n  string public symbol;\n  uint8 public decimals;\n  uint256 public totalSuply;\n  mapping(address => uint256) public balanceOf;\n  mapping(address => mapping(address => uint256)) public allowance;\n\n  constructor(string memory _name, string memory _symbol, uint256 _totalSupply) {\n    name = _name;\n    symbol = _symbol;\n    totalSuply = _totalSupply;\n    decimals = 18;\n    balanceOf[msg.sender] = _totalSupply;\n  }\n\n  event Transfer(address indexed _from, address indexed _to, uint256 _value);\n  event Approval(address indexed _owner, address indexed _spender, uint256 _value);\n\n  function transfer(address _to, uint256 _value) public returns (bool success) {\n    require(balanceOf[msg.sender] >= _value);\n    balanceOf[msg.sender] -= _value;\n    balanceOf[_to] += _value;\n    emit Transfer(msg.sender, _to, _value);\n    return true;\n  }\n\n  function transferFrom(address _from, address _to, uint256 _value) public returns (bool success) {\n    require(balanceOf[_from] >= _value);\n    require(allowance[_from][msg.sender] >= _value);\n    balanceOf[_from] -= _value;\n    balanceOf[_to] += _value;\n\n    allowance[_from][msg.sender] -= _value;\n\n    emit Transfer(_from, _to, _value);\n\n    return true;\n  }\n}\n",
  "sourcePath": "contracts/coin.sol",
  "abi": [
    {
      "inputs": [
        {
          "internalType": "string",
          "name": "_name",
          "type": "string"
        },
        {
          "internalType": "string",
          "name": "_symbol",
          "type": "string"
        },
        {
          "internalType": "uint256",
          "name": "_totalSupply",
          "type": "uint256"
        }
      ],
      "stateMutability": "nonpayable",
      "type": "constructor"
    },
    {
      "anonymous": false,
      "inputs": [
        {
          "indexed": true,
          "internalType": "address",
          "name": "_owner",
          "type": "address"
        },
        {
          "indexed": true,
          "internalType": "address",
          "name": "_spender",
          "type": "address"
        },
        {
          "indexed": false,
          "internalType": "uint256",
          "name": "_value",
          "type": "uint256"
        }
      ],
      "name": "Approval",
      "type": "event"
    },
    {
      "anonymous": false,
      "inputs": [
        {
          "indexed": true,
          "internalType": "address",
          "name": "_from",
          "type": "address"
        },
        {
          "indexed": true,
          "internalType": "address",
          "name": "_to",
          "type": "address"
        },
        {
          "indexed": false,
          "internalType": "uint256",
          "name": "_value",
          "type": "uint256"
        }
      ],
      "name": "Transfer",
      "type": "event"
    },
    {
      "inputs": [
        {
          "internalType": "address",
          "name": "",
          "type": "address"
        },
        {
          "internalType": "address",
          "name": "",
          "type": "address"
        }
      ],
      "name": "allowance",
      "outputs": [
        {
          "internalType": "uint256",
          "name": "",
          "type": "uint256"
        }
      ],
      "stateMutability": "view",
      "type": "function"
    },
    {
      "inputs": [
        {
          "internalType": "address",
          "name": "",
          "type": "address"
        }
      ],
      "name": "balanceOf",
      "outputs": [
        {
          "internalType": "uint256",
          "name": "",
          "type": "uint256"
        }
      ],
      "stateMutability": "view",
      "type": "function"
    },
    {
      "inputs": [],
      "name": "decimals",
      "outputs": [
        {
          "internalType": "uint8",
          "name": "",
          "type": "uint8"
        }
      ],
      "stateMutability": "view",
      "type": "function"
    },
    {
      "inputs": [],
      "name": "name",
      "outputs": [
        {
          "internalType": "string",
          "name": "",
          "type": "string"
        }
      ],
      "stateMutability": "view",
      "type": "function"
    },
    {
      "inputs": [],
      "name": "symbol",
      "outputs": [
        {
          "internalType": "string",
          "name": "",
          "type": "string"
        }
      ],
      "stateMutability": "view",
      "type": "function"
    },
    {
      "inputs": [],
      "name": "totalSuply",
      "outputs": [
        {
          "internalType": "uint256",
          "name": "",
          "type": "uint256"
        }
      ],
      "stateMutability": "view",
      "type": "function"
    },
    {
      "inputs": [
        {
          "internalType": "address",
          "name": "_to",
          "type": "address"
        },
        {
          "internalType": "uint256",
          "name": "_value",
          "type": "uint256"
        }
      ],
      "name": "transfer",
      "outputs": [
        {
          "internalType": "bool",
          "name": "success",
          "type": "bool"
        }
      ],
      "stateMutability": "nonpayable",
      "type": "function"
    },
    {
      "inputs": [
        {
          "internalType": "address",
          "name": "_from",
          "type": "address"
        },
        {
          "internalType": "address",
          "name": "_to",
          "type": "address"
        },
        {
          "internalType": "uint256",
          "name": "_value",
          "type": "uint256"
        }
      ],
      "name": "transferFrom",
      "outputs": [
        {
          "internalType": "bool",
          "name": "success",
          "type": "bool"
        }
      ],
      "stateMutability": "nonpayable",
      "type": "function"
    }
  ],
  "bytecode": "0x60806040523480156200001157600080fd5b5060405162000c3e38038062000c3e833981810160405260608110156200003757600080fd5b81019080805160405193929190846401000000008211156200005857600080fd5b838201915060208201858111156200006f57600080fd5b82518660018202830111640100000000821117156200008d57600080fd5b8083526020830192505050908051906020019080838360005b83811015620000c3578082015181840152602081019050620000a6565b50505050905090810190601f168015620000f15780820380516001836020036101000a031916815260200191505b50604052602001805160405193929190846401000000008211156200011557600080fd5b838201915060208201858111156200012c57600080fd5b82518660018202830111640100000000821117156200014a57600080fd5b8083526020830192505050908051906020019080838360005b838110156200018057808201518184015260208101905062000163565b50505050905090810190601f168015620001ae5780820380516001836020036101000a031916815260200191505b50604052602001805190602001909291905050508260009080519060200190620001da92919062000264565b508160019080519060200190620001f392919062000264565b50806003819055506012600260006101000a81548160ff021916908360ff16021790555080600460003373ffffffffffffffffffffffffffffffffffffffff1673ffffffffffffffffffffffffffffffffffffffff168152602001908152602001600020819055505050506200031a565b828054600181600116156101000203166002900490600052602060002090601f0160209004810192826200029c5760008555620002e8565b82601f10620002b757805160ff1916838001178555620002e8565b82800160010185558215620002e8579182015b82811115620002e7578251825591602001919060010190620002ca565b5b509050620002f79190620002fb565b5090565b5b8082111562000316576000816000905550600101620002fc565b5090565b610914806200032a6000396000f3fe608060405234801561001057600080fd5b50600436106100885760003560e01c806395d89b411161005b57806395d89b411461020d578063a2a9679914610290578063a9059cbb146102ae578063dd62ed3e1461031257610088565b806306fdde031461008d57806323b872dd14610110578063313ce5671461019457806370a08231146101b5575b600080fd5b61009561038a565b6040518080602001828103825283818151815260200191508051906020019080838360005b838110156100d55780820151818401526020810190506100ba565b50505050905090810190601f1680156101025780820380516001836020036101000a031916815260200191505b509250505060405180910390f35b61017c6004803603606081101561012657600080fd5b81019080803573ffffffffffffffffffffffffffffffffffffffff169060200190929190803573ffffffffffffffffffffffffffffffffffffffff16906020019092919080359060200190929190505050610428565b60405180821515815260200191505060405180910390f35b61019c610693565b604051808260ff16815260200191505060405180910390f35b6101f7600480360360208110156101cb57600080fd5b81019080803573ffffffffffffffffffffffffffffffffffffffff1690602001909291905050506106a6565b6040518082815260200191505060405180910390f35b6102156106be565b6040518080602001828103825283818151815260200191508051906020019080838360005b8381101561025557808201518184015260208101905061023a565b50505050905090810190601f1680156102825780820380516001836020036101000a031916815260200191505b509250505060405180910390f35b61029861075c565b6040518082815260200191505060405180910390f35b6102fa600480360360408110156102c457600080fd5b81019080803573ffffffffffffffffffffffffffffffffffffffff16906020019092919080359060200190929190505050610762565b60405180821515815260200191505060405180910390f35b6103746004803603604081101561032857600080fd5b81019080803573ffffffffffffffffffffffffffffffffffffffff169060200190929190803573ffffffffffffffffffffffffffffffffffffffff1690602001909291905050506108b9565b6040518082815260200191505060405180910390f35b60008054600181600116156101000203166002900480601f0160208091040260200160405190810160405280929190818152602001828054600181600116156101000203166002900480156104205780601f106103f557610100808354040283529160200191610420565b820191906000526020600020905b81548152906001019060200180831161040357829003601f168201915b505050505081565b600081600460008673ffffffffffffffffffffffffffffffffffffffff1673ffffffffffffffffffffffffffffffffffffffff16815260200190815260200160002054101561047657600080fd5b81600560008673ffffffffffffffffffffffffffffffffffffffff1673ffffffffffffffffffffffffffffffffffffffff16815260200190815260200160002060003373ffffffffffffffffffffffffffffffffffffffff1673ffffffffffffffffffffffffffffffffffffffff1681526020019081526020016000205410156104ff57600080fd5b81600460008673ffffffffffffffffffffffffffffffffffffffff1673ffffffffffffffffffffffffffffffffffffffff1681526020019081526020016000206000828254039250508190555081600460008573ffffffffffffffffffffffffffffffffffffffff1673ffffffffffffffffffffffffffffffffffffffff1681526020019081526020016000206000828254019250508190555081600560008673ffffffffffffffffffffffffffffffffffffffff1673ffffffffffffffffffffffffffffffffffffffff16815260200190815260200160002060003373ffffffffffffffffffffffffffffffffffffffff1673ffffffffffffffffffffffffffffffffffffffff168152602001908152602001600020600082825403925050819055508273ffffffffffffffffffffffffffffffffffffffff168473ffffffffffffffffffffffffffffffffffffffff167fddf252ad1be2c89b69c2b068fc378daa952ba7f163c4a11628f55a4df523b3ef846040518082815260200191505060405180910390a3600190509392505050565b600260009054906101000a900460ff1681565b60046020528060005260406000206000915090505481565b60018054600181600116156101000203166002900480601f0160208091040260200160405190810160405280929190818152602001828054600181600116156101000203166002900480156107545780601f1061072957610100808354040283529160200191610754565b820191906000526020600020905b81548152906001019060200180831161073757829003601f168201915b505050505081565b60035481565b600081600460003373ffffffffffffffffffffffffffffffffffffffff1673ffffffffffffffffffffffffffffffffffffffff1681526020019081526020016000205410156107b057600080fd5b81600460003373ffffffffffffffffffffffffffffffffffffffff1673ffffffffffffffffffffffffffffffffffffffff1681526020019081526020016000206000828254039250508190555081600460008573ffffffffffffffffffffffffffffffffffffffff1673ffffffffffffffffffffffffffffffffffffffff168152602001908152602001600020600082825401925050819055508273ffffffffffffffffffffffffffffffffffffffff163373ffffffffffffffffffffffffffffffffffffffff167fddf252ad1be2c89b69c2b068fc378daa952ba7f163c4a11628f55a4df523b3ef846040518082815260200191505060405180910390a36001905092915050565b600560205281600052604060002060205280600052604060002060009150915050548156fea264697066735822122036c2fd0dcd3ceb0032c271871c540b173ef31a0746152498f25a31539812731e64736f6c63430007050033",
  "compiler": {
    "name": "solc",
    "version": "0.7.5+commit.eb77ed08.Emscripten.clang",
    "optimizer": {
      "enabled": false,
      "runs": 200
    },
    "evmVersion": "petersburg"
  }
}