{
  "fileName": "cars.sol",
  "contractName": "Cars",
  "source": "// SPDX-License-Identifier: GPL-3.0\npragma solidity ^0.7.5;\n\ncontract Cars {\n  address owner;\n  uint256 price;\n  uint256[] identifiers;\n  mapping(address => Car) cars;\n  struct Car {\n    uint256 identifier;\n    string brand;\n    uint32 horses;\n    uint32 kilometers;\n  }\n\n  modifier filterPrice(uint256 _price) {\n    require(_price == price);\n    _;\n  }\n\n  constructor(uint256 _price) payable {\n    owner = msg.sender;\n    price = _price;\n  }\n\n  function addCar(uint256 _id, string memory _brand, uint32 _horses, uint32 _kilometers) public filterPrice(msg.value) payable {\n    identifiers.push(_id);\n    cars[msg.sender].identifier = _id;\n    cars[msg.sender].brand = _brand;\n    cars[msg.sender].horses = _horses;\n    cars[msg.sender].kilometers = _kilometers;\n  }\n\n  function getIdentifiers () external view returns(uint256) {\n    return identifiers.length;\n  }\n\n  function getCar() external view returns(string memory brand, uint32 horses, uint32 kilometers) {\n    brand = cars[msg.sender].brand;\n    horses = cars[msg.sender].horses;\n    kilometers = cars[msg.sender].kilometers;\n  }\n}\n",
  "sourcePath": "contracts/cars.sol",
  "abi": [
    {
      "inputs": [
        {
          "internalType": "uint256",
          "name": "_price",
          "type": "uint256"
        }
      ],
      "stateMutability": "payable",
      "type": "constructor"
    },
    {
      "inputs": [
        {
          "internalType": "uint256",
          "name": "_id",
          "type": "uint256"
        },
        {
          "internalType": "string",
          "name": "_brand",
          "type": "string"
        },
        {
          "internalType": "uint32",
          "name": "_horses",
          "type": "uint32"
        },
        {
          "internalType": "uint32",
          "name": "_kilometers",
          "type": "uint32"
        }
      ],
      "name": "addCar",
      "outputs": [],
      "stateMutability": "payable",
      "type": "function"
    },
    {
      "inputs": [],
      "name": "getCar",
      "outputs": [
        {
          "internalType": "string",
          "name": "brand",
          "type": "string"
        },
        {
          "internalType": "uint32",
          "name": "horses",
          "type": "uint32"
        },
        {
          "internalType": "uint32",
          "name": "kilometers",
          "type": "uint32"
        }
      ],
      "stateMutability": "view",
      "type": "function"
    },
    {
      "inputs": [],
      "name": "getIdentifiers",
      "outputs": [
        {
          "internalType": "uint256",
          "name": "",
          "type": "uint256"
        }
      ],
      "stateMutability": "view",
      "type": "function"
    }
  ],
  "bytecode": "0x608060405260405161069f38038061069f8339818101604052602081101561002657600080fd5b8101908080519060200190929190505050336000806101000a81548173ffffffffffffffffffffffffffffffffffffffff021916908373ffffffffffffffffffffffffffffffffffffffff16021790555080600181905550506106118061008e6000396000f3fe6080604052600436106100345760003560e01c8063a4770a8814610039578063c79c5af614610064578063ca04c83414610149575b600080fd5b34801561004557600080fd5b5061004e6101f3565b6040518082815260200191505060405180910390f35b6101476004803603608081101561007a57600080fd5b8101908080359060200190929190803590602001906401000000008111156100a157600080fd5b8201836020820111156100b357600080fd5b803590602001918460018302840111640100000000831117156100d557600080fd5b91908080601f016020809104026020016040519081016040528093929190818152602001838380828437600081840152601f19601f820116905080830192505050505050509192919290803563ffffffff169060200190929190803563ffffffff169060200190929190505050610200565b005b34801561015557600080fd5b5061015e61039f565b60405180806020018463ffffffff1681526020018363ffffffff168152602001828103825285818151815260200191508051906020019080838360005b838110156101b657808201518184015260208101905061019b565b50505050905090810190601f1680156101e35780820380516001836020036101000a031916815260200191505b5094505050505060405180910390f35b6000600280549050905090565b34600154811461020f57600080fd5b600285908060018154018082558091505060019003906000526020600020016000909190919091505584600360003373ffffffffffffffffffffffffffffffffffffffff1673ffffffffffffffffffffffffffffffffffffffff1681526020019081526020016000206000018190555083600360003373ffffffffffffffffffffffffffffffffffffffff1673ffffffffffffffffffffffffffffffffffffffff16815260200190815260200160002060010190805190602001906102d5929190610530565b5082600360003373ffffffffffffffffffffffffffffffffffffffff1673ffffffffffffffffffffffffffffffffffffffff16815260200190815260200160002060020160006101000a81548163ffffffff021916908363ffffffff16021790555081600360003373ffffffffffffffffffffffffffffffffffffffff1673ffffffffffffffffffffffffffffffffffffffff16815260200190815260200160002060020160046101000a81548163ffffffff021916908363ffffffff1602179055505050505050565b6060600080600360003373ffffffffffffffffffffffffffffffffffffffff1673ffffffffffffffffffffffffffffffffffffffff1681526020019081526020016000206001018054600181600116156101000203166002900480601f01602080910402602001604051908101604052809291908181526020018280546001816001161561010002031660029004801561047a5780601f1061044f5761010080835404028352916020019161047a565b820191906000526020600020905b81548152906001019060200180831161045d57829003601f168201915b50505050509250600360003373ffffffffffffffffffffffffffffffffffffffff1673ffffffffffffffffffffffffffffffffffffffff16815260200190815260200160002060020160009054906101000a900463ffffffff169150600360003373ffffffffffffffffffffffffffffffffffffffff1673ffffffffffffffffffffffffffffffffffffffff16815260200190815260200160002060020160049054906101000a900463ffffffff169050909192565b828054600181600116156101000203166002900490600052602060002090601f01602090048101928261056657600085556105ad565b82601f1061057f57805160ff19168380011785556105ad565b828001600101855582156105ad579182015b828111156105ac578251825591602001919060010190610591565b5b5090506105ba91906105be565b5090565b5b808211156105d75760008160009055506001016105bf565b509056fea26469706673582212209f718af1b6d2d20bcbe83984206de5d4f6200b3284d003127e697e530ad8298e64736f6c63430007050033",
  "compiler": {
    "name": "solc",
    "version": "0.7.5+commit.eb77ed08.Emscripten.clang",
    "optimizer": {
      "enabled": false,
      "runs": 200
    },
    "evmVersion": "petersburg"
  }
}